{
  "_format": "hh-sol-artifact-1",
  "contractName": "MockRandomnessReceiver",
  "sourceName": "contracts/RandomNumberGenerator.sol",
  "abi": [
    {
      "inputs": [
        {
          "internalType": "address",
          "name": "randomnessSender",
          "type": "address"
        },
        {
          "internalType": "address",
          "name": "owner",
          "type": "address"
        }
      ],
      "stateMutability": "nonpayable",
      "type": "constructor"
    },
    {
      "anonymous": false,
      "inputs": [
        {
          "indexed": true,
          "internalType": "address",
          "name": "sender",
          "type": "address"
        },
        {
          "indexed": false,
          "internalType": "uint256",
          "name": "amount",
          "type": "uint256"
        }
      ],
      "name": "Funded",
      "type": "event"
    },
    {
      "anonymous": false,
      "inputs": [
        {
          "indexed": true,
          "internalType": "uint256",
          "name": "subscriptionId",
          "type": "uint256"
        }
      ],
      "name": "NewSubscriptionId",
      "type": "event"
    },
    {
      "anonymous": false,
      "inputs": [
        {
          "indexed": true,
          "internalType": "address",
          "name": "from",
          "type": "address"
        },
        {
          "indexed": true,
          "internalType": "address",
          "name": "to",
          "type": "address"
        }
      ],
      "name": "OwnershipTransferRequested",
      "type": "event"
    },
    {
      "anonymous": false,
      "inputs": [
        {
          "indexed": true,
          "internalType": "address",
          "name": "from",
          "type": "address"
        },
        {
          "indexed": true,
          "internalType": "address",
          "name": "to",
          "type": "address"
        }
      ],
      "name": "OwnershipTransferred",
      "type": "event"
    },
    {
      "anonymous": false,
      "inputs": [
        {
          "indexed": false,
          "internalType": "address",
          "name": "",
          "type": "address"
        },
        {
          "indexed": false,
          "internalType": "uint256",
          "name": "",
          "type": "uint256"
        }
      ],
      "name": "Received",
      "type": "event"
    },
    {
      "anonymous": false,
      "inputs": [
        {
          "indexed": true,
          "internalType": "address",
          "name": "recipient",
          "type": "address"
        },
        {
          "indexed": false,
          "internalType": "uint256",
          "name": "amount",
          "type": "uint256"
        }
      ],
      "name": "Withdrawn",
      "type": "event"
    },
    {
      "inputs": [],
      "name": "acceptOwnership",
      "outputs": [],
      "stateMutability": "nonpayable",
      "type": "function"
    },
    {
      "inputs": [
        {
          "internalType": "address",
          "name": "to",
          "type": "address"
        }
      ],
      "name": "cancelSubscription",
      "outputs": [],
      "stateMutability": "nonpayable",
      "type": "function"
    },
    {
      "inputs": [],
      "name": "createSubscriptionAndFundNative",
      "outputs": [],
      "stateMutability": "payable",
      "type": "function"
    },
    {
      "inputs": [
        {
          "internalType": "uint32",
          "name": "callbackGasLimit",
          "type": "uint32"
        }
      ],
      "name": "generateWithDirectFunding",
      "outputs": [
        {
          "internalType": "uint256",
          "name": "",
          "type": "uint256"
        },
        {
          "internalType": "uint256",
          "name": "",
          "type": "uint256"
        }
      ],
      "stateMutability": "payable",
      "type": "function"
    },
    {
      "inputs": [
        {
          "internalType": "uint32",
          "name": "callbackGasLimit",
          "type": "uint32"
        }
      ],
      "name": "generateWithSubscription",
      "outputs": [
        {
          "internalType": "uint256",
          "name": "",
          "type": "uint256"
        }
      ],
      "stateMutability": "nonpayable",
      "type": "function"
    },
    {
      "inputs": [],
      "name": "getBalance",
      "outputs": [
        {
          "internalType": "uint256",
          "name": "",
          "type": "uint256"
        }
      ],
      "stateMutability": "view",
      "type": "function"
    },
    {
      "inputs": [
        {
          "internalType": "uint256",
          "name": "requestId",
          "type": "uint256"
        }
      ],
      "name": "isInFlight",
      "outputs": [
        {
          "internalType": "bool",
          "name": "",
          "type": "bool"
        }
      ],
      "stateMutability": "view",
      "type": "function"
    },
    {
      "inputs": [],
      "name": "owner",
      "outputs": [
        {
          "internalType": "address",
          "name": "",
          "type": "address"
        }
      ],
      "stateMutability": "view",
      "type": "function"
    },
    {
      "inputs": [
        {
          "internalType": "uint256",
          "name": "subId",
          "type": "uint256"
        }
      ],
      "name": "pendingRequestExists",
      "outputs": [
        {
          "internalType": "bool",
          "name": "",
          "type": "bool"
        }
      ],
      "stateMutability": "view",
      "type": "function"
    },
    {
      "inputs": [],
      "name": "randomness",
      "outputs": [
        {
          "internalType": "bytes32",
          "name": "",
          "type": "bytes32"
        }
      ],
      "stateMutability": "view",
      "type": "function"
    },
    {
      "inputs": [],
      "name": "randomnessSender",
      "outputs": [
        {
          "internalType": "contract IRandomnessSender",
          "name": "",
          "type": "address"
        }
      ],
      "stateMutability": "view",
      "type": "function"
    },
    {
      "inputs": [
        {
          "internalType": "uint256",
          "name": "requestID",
          "type": "uint256"
        },
        {
          "internalType": "bytes32",
          "name": "randomness",
          "type": "bytes32"
        }
      ],
      "name": "receiveRandomness",
      "outputs": [],
      "stateMutability": "nonpayable",
      "type": "function"
    },
    {
      "inputs": [],
      "name": "requestId",
      "outputs": [
        {
          "internalType": "uint256",
          "name": "",
          "type": "uint256"
        }
      ],
      "stateMutability": "view",
      "type": "function"
    },
    {
      "inputs": [
        {
          "internalType": "address",
          "name": "_randomnessSender",
          "type": "address"
        }
      ],
      "name": "setRandomnessSender",
      "outputs": [],
      "stateMutability": "nonpayable",
      "type": "function"
    },
    {
      "inputs": [
        {
          "internalType": "uint256",
          "name": "subId",
          "type": "uint256"
        }
      ],
      "name": "setSubId",
      "outputs": [],
      "stateMutability": "nonpayable",
      "type": "function"
    },
    {
      "inputs": [],
      "name": "subscriptionId",
      "outputs": [
        {
          "internalType": "uint256",
          "name": "",
          "type": "uint256"
        }
      ],
      "stateMutability": "view",
      "type": "function"
    },
    {
      "inputs": [],
      "name": "topUpSubscriptionNative",
      "outputs": [],
      "stateMutability": "payable",
      "type": "function"
    },
    {
      "inputs": [
        {
          "internalType": "address",
          "name": "to",
          "type": "address"
        }
      ],
      "name": "transferOwnership",
      "outputs": [],
      "stateMutability": "nonpayable",
      "type": "function"
    },
    {
      "inputs": [
        {
          "internalType": "address[]",
          "name": "consumers",
          "type": "address[]"
        }
      ],
      "name": "updateSubscription",
      "outputs": [],
      "stateMutability": "nonpayable",
      "type": "function"
    }
  ],
  "bytecode": "0x608060405234801561001057600080fd5b50604051620010aa380380620010aa833981016040819052610031916101b4565b8181808060006001600160a01b0382166100925760405162461bcd60e51b815260206004820152601860248201527f43616e6e6f7420736574206f776e657220746f207a65726f000000000000000060448201526064015b60405180910390fd5b600080546001600160a01b0319166001600160a01b03848116919091179091558116156100c2576100c2816100ef565b5050600280546001600160a01b0319166001600160a01b039490941693909317909255506101e792505050565b336001600160a01b038216036101475760405162461bcd60e51b815260206004820152601760248201527f43616e6e6f74207472616e7366657220746f2073656c660000000000000000006044820152606401610089565b600180546001600160a01b0319166001600160a01b0383811691821790925560008054604051929316917fed8889f560326eb138920d842192f0eb3dd22b4f139c87a2c57538e05bae12789190a350565b80516001600160a01b03811681146101af57600080fd5b919050565b600080604083850312156101c757600080fd5b6101d083610198565b91506101de60208401610198565b90509250929050565b610eb380620001f76000396000f3fe6080604052600436106101135760003560e01c806375f6062a116100a0578063b96dbba711610064578063b96dbba7146102c1578063cd802c91146102c9578063df3fafe8146102e9578063f2fde38b14610309578063f65eb9e11461032957600080fd5b806375f6062a1461021a57806379ba50971461023a578063809800431461024f5780638da5cb5b1461026f57806393d81d58146102a157600080fd5b80631d2b2afd116100e75780631d2b2afd1461018c578063360131891461019457806336bfffed146101aa57806341af6c87146101ca578063431ac657146101fa57600080fd5b80626d6cae14610118578063011164a61461014157806309c1ba2e1461016357806312065fe014610179575b600080fd5b34801561012457600080fd5b5061012e60055481565b6040519081526020015b60405180910390f35b34801561014d57600080fd5b5061016161015c366004610cff565b610351565b005b34801561016f57600080fd5b5061012e60035481565b34801561018557600080fd5b504761012e565b6101616103e0565b3480156101a057600080fd5b5061012e60045481565b3480156101b657600080fd5b506101616101c5366004610d2f565b610487565b3480156101d657600080fd5b506101ea6101e5366004610da4565b610592565b6040519015158152602001610138565b34801561020657600080fd5b50610161610215366004610dbd565b610607565b34801561022657600080fd5b5061012e610235366004610ddf565b61066f565b34801561024657600080fd5b50610161610687565b34801561025b57600080fd5b5061016161026a366004610da4565b610731565b34801561027b57600080fd5b506000546001600160a01b03165b6040516001600160a01b039091168152602001610138565b3480156102ad57600080fd5b506101616102bc366004610cff565b61076c565b610161610780565b3480156102d557600080fd5b506101ea6102e4366004610da4565b6107c7565b3480156102f557600080fd5b50600254610289906001600160a01b031681565b34801561031557600080fd5b50610161610324366004610cff565b6107f9565b61033c610337366004610ddf565b61080a565b60408051928352602083019190915201610138565b61035961082a565b6001600160a01b0381166103be5760405162461bcd60e51b815260206004820152602160248201527f43616e6e6f7420736574207a65726f20616464726573732061732073656e64656044820152603960f91b60648201526084015b60405180910390fd5b600280546001600160a01b0319166001600160a01b0392909216919091179055565b6003546000036104205760405162461bcd60e51b815260206004820152600b60248201526a1cdd58881b9bdd081cd95d60aa1b60448201526064016103b5565b60025460035460405163256d573f60e21b815260048101919091526001600160a01b03909116906395b55cfc9034906024015b6000604051808303818588803b15801561046c57600080fd5b505af1158015610480573d6000803e3d6000fd5b5050505050565b61048f61082a565b6003546000036104d15760405162461bcd60e51b815260206004820152600d60248201526c1cdd589251081b9bdd081cd95d609a1b60448201526064016103b5565b60005b8181101561058d576002546003546001600160a01b039091169063bec4c08c9085858581811061050657610506610e05565b905060200201602081019061051b9190610cff565b6040516001600160e01b031960e085901b16815260048101929092526001600160a01b03166024820152604401600060405180830381600087803b15801561056257600080fd5b505af1158015610576573d6000803e3d6000fd5b50505050808061058590610e1b565b9150506104d4565b505050565b6002546040516341af6c8760e01b8152600481018390526000916001600160a01b0316906341af6c87906024015b602060405180830381865afa1580156105dd573d6000803e3d6000fd5b505050506040513d601f19601f820116820180604052508101906106019190610e42565b92915050565b6002546001600160a01b031633146106615760405162461bcd60e51b815260206004820152601e60248201527f4f6e6c792072616e646f6d6e65737353656e6465722063616e2063616c6c000060448201526064016103b5565b61066b828261087f565b5050565b60008061067b836108cc565b60058190559392505050565b6001546001600160a01b031633146106da5760405162461bcd60e51b815260206004820152601660248201527526bab9ba10313290383937b837b9b2b21037bbb732b960511b60448201526064016103b5565b60008054336001600160a01b0319808316821784556001805490911690556040516001600160a01b0390921692909183917f8be0079c531659141344cd1fd0a4f28419497f9722a3daafe3b4186f6b6457e091a350565b61073961082a565b600381905560405181907f5f479ac993925efae23839aa1c813b6ecb2fe1bbd14dc78295ab267d2fca436890600090a250565b61077461082a565b61077d8161094c565b50565b61078861082a565b6107906109e8565b600381905560025460405163256d573f60e21b815260048101929092526001600160a01b0316906395b55cfc903490602401610453565b60025460405163cd802c9160e01b8152600481018390526000916001600160a01b03169063cd802c91906024016105c0565b61080161082a565b61077d81610b1d565b60008060008061081985610bc6565b600582905590969095509350505050565b6000546001600160a01b0316331461087d5760405162461bcd60e51b815260206004820152601660248201527527b7363c9031b0b63630b1363290313c9037bbb732b960511b60448201526064016103b5565b565b81600554146108c65760405162461bcd60e51b81526020600482015260136024820152720a4cae2eacae6e840928840dad2e6dac2e8c6d606b1b60448201526064016103b5565b60045550565b600254600354604051631da53c9f60e01b815263ffffffff8416600482015260248101919091526000916001600160a01b031690631da53c9f906044016020604051808303816000875af1158015610928573d6000803e3d6000fd5b505050506040513d601f19601f820116820180604052508101906106019190610e64565b6003546000036109975760405162461bcd60e51b8152602060048201526016602482015275537562736372697074696f6e4964206973207a65726f60501b60448201526064016103b5565b600254600354604051622b825560e61b815260048101919091526001600160a01b03838116602483015290911690630ae0954090604401600060405180830381600087803b15801561046c57600080fd5b6000600354600014610a3c5760405162461bcd60e51b815260206004820152601a60248201527f537562736372697074696f6e4964206973206e6f74207a65726f00000000000060448201526064016103b5565b600260009054906101000a90046001600160a01b03166001600160a01b031663a21a23e46040518163ffffffff1660e01b81526004016020604051808303816000875af1158015610a91573d6000803e3d6000fd5b505050506040513d601f19601f82011682018060405250810190610ab59190610e64565b600254604051632fb1302360e21b8152600481018390523060248201529192506001600160a01b03169063bec4c08c90604401600060405180830381600087803b158015610b0257600080fd5b505af1158015610b16573d6000803e3d6000fd5b5050505090565b336001600160a01b03821603610b755760405162461bcd60e51b815260206004820152601760248201527f43616e6e6f74207472616e7366657220746f2073656c6600000000000000000060448201526064016103b5565b600180546001600160a01b0319166001600160a01b0383811691821790925560008054604051929316917fed8889f560326eb138920d842192f0eb3dd22b4f139c87a2c57538e05bae12789190a350565b600254604051634b16093560e01b815263ffffffff8316600482015260009182916001600160a01b0390911690634b16093590602401602060405180830381865afa158015610c19573d6000803e3d6000fd5b505050506040513d601f19601f82011682018060405250810190610c3d9190610e64565b905080341015610c825760405162461bcd60e51b815260206004820152601060248201526f092dce6eaccccd2c6d2cadce8408aa8960831b60448201526064016103b5565b60025460405163408f719560e11b815263ffffffff851660048201526001600160a01b039091169063811ee32a90349060240160206040518083038185885af1158015610cd3573d6000803e3d6000fd5b50505050506040513d601f19601f82011682018060405250810190610cf89190610e64565b9150915091565b600060208284031215610d1157600080fd5b81356001600160a01b0381168114610d2857600080fd5b9392505050565b60008060208385031215610d4257600080fd5b823567ffffffffffffffff80821115610d5a57600080fd5b818501915085601f830112610d6e57600080fd5b813581811115610d7d57600080fd5b8660208260051b8501011115610d9257600080fd5b60209290920196919550909350505050565b600060208284031215610db657600080fd5b5035919050565b60008060408385031215610dd057600080fd5b50508035926020909101359150565b600060208284031215610df157600080fd5b813563ffffffff81168114610d2857600080fd5b634e487b7160e01b600052603260045260246000fd5b600060018201610e3b57634e487b7160e01b600052601160045260246000fd5b5060010190565b600060208284031215610e5457600080fd5b81518015158114610d2857600080fd5b600060208284031215610e7657600080fd5b505191905056fea26469706673582212203b566b13e4c7d1999ff58b4d6cd169f0f159ad068f10d50e68b35f9551ba4abf64736f6c63430008140033",
  "linkReferences": {},
  "deployedLinkReferences": {}
}