{
  "_format": "hh-sol-artifact-1",
  "contractName": "CryptoCatcherBlocklock",
  "sourceName": "contracts/CryptoCatcherBlocklock.sol",
  "abi": [
    {
      "inputs": [
        {
          "internalType": "address",
          "name": "blocklockSender",
          "type": "address"
        }
      ],
      "stateMutability": "nonpayable",
      "type": "constructor"
    },
    {
      "inputs": [],
      "name": "InvalidSealType",
      "type": "error"
    },
    {
      "inputs": [],
      "name": "SealNotFound",
      "type": "error"
    },
    {
      "inputs": [],
      "name": "SealNotReady",
      "type": "error"
    },
    {
      "inputs": [],
      "name": "SessionAlreadySealed",
      "type": "error"
    },
    {
      "inputs": [],
      "name": "UnauthorizedPlayer",
      "type": "error"
    },
    {
      "anonymous": false,
      "inputs": [
        {
          "indexed": true,
          "internalType": "address",
          "name": "sender",
          "type": "address"
        },
        {
          "indexed": false,
          "internalType": "uint256",
          "name": "amount",
          "type": "uint256"
        }
      ],
      "name": "Funded",
      "type": "event"
    },
    {
      "anonymous": false,
      "inputs": [
        {
          "indexed": true,
          "internalType": "uint256",
          "name": "sealId",
          "type": "uint256"
        },
        {
          "indexed": true,
          "internalType": "address",
          "name": "player",
          "type": "address"
        },
        {
          "indexed": false,
          "internalType": "uint256",
          "name": "sessionId",
          "type": "uint256"
        },
        {
          "indexed": false,
          "internalType": "uint256",
          "name": "multiplier",
          "type": "uint256"
        }
      ],
      "name": "MultiplierRevealed",
      "type": "event"
    },
    {
      "anonymous": false,
      "inputs": [
        {
          "indexed": true,
          "internalType": "uint256",
          "name": "subscriptionId",
          "type": "uint256"
        }
      ],
      "name": "NewSubscriptionId",
      "type": "event"
    },
    {
      "anonymous": false,
      "inputs": [
        {
          "indexed": true,
          "internalType": "address",
          "name": "from",
          "type": "address"
        },
        {
          "indexed": true,
          "internalType": "address",
          "name": "to",
          "type": "address"
        }
      ],
      "name": "OwnershipTransferRequested",
      "type": "event"
    },
    {
      "anonymous": false,
      "inputs": [
        {
          "indexed": true,
          "internalType": "address",
          "name": "from",
          "type": "address"
        },
        {
          "indexed": true,
          "internalType": "address",
          "name": "to",
          "type": "address"
        }
      ],
      "name": "OwnershipTransferred",
      "type": "event"
    },
    {
      "anonymous": false,
      "inputs": [
        {
          "indexed": false,
          "internalType": "address",
          "name": "",
          "type": "address"
        },
        {
          "indexed": false,
          "internalType": "uint256",
          "name": "",
          "type": "uint256"
        }
      ],
      "name": "Received",
      "type": "event"
    },
    {
      "anonymous": false,
      "inputs": [
        {
          "indexed": true,
          "internalType": "uint256",
          "name": "sealId",
          "type": "uint256"
        },
        {
          "indexed": false,
          "internalType": "string",
          "name": "reason",
          "type": "string"
        }
      ],
      "name": "SealFailed",
      "type": "event"
    },
    {
      "anonymous": false,
      "inputs": [
        {
          "indexed": true,
          "internalType": "uint256",
          "name": "sealId",
          "type": "uint256"
        },
        {
          "indexed": true,
          "internalType": "address",
          "name": "player",
          "type": "address"
        },
        {
          "indexed": true,
          "internalType": "uint256",
          "name": "sessionId",
          "type": "uint256"
        },
        {
          "indexed": false,
          "internalType": "enum CryptoCatcherBlocklock.SealType",
          "name": "sealType",
          "type": "uint8"
        },
        {
          "indexed": false,
          "internalType": "uint256",
          "name": "unlockTime",
          "type": "uint256"
        }
      ],
      "name": "SealedSessionCreated",
      "type": "event"
    },
    {
      "anonymous": false,
      "inputs": [
        {
          "indexed": true,
          "internalType": "address",
          "name": "recipient",
          "type": "address"
        },
        {
          "indexed": false,
          "internalType": "uint256",
          "name": "amount",
          "type": "uint256"
        }
      ],
      "name": "Withdrawn",
      "type": "event"
    },
    {
      "inputs": [
        {
          "components": [
            {
              "components": [
                {
                  "internalType": "uint256[2]",
                  "name": "x",
                  "type": "uint256[2]"
                },
                {
                  "internalType": "uint256[2]",
                  "name": "y",
                  "type": "uint256[2]"
                }
              ],
              "internalType": "struct BLS.PointG2",
              "name": "u",
              "type": "tuple"
            },
            {
              "internalType": "bytes",
              "name": "v",
              "type": "bytes"
            },
            {
              "internalType": "bytes",
              "name": "w",
              "type": "bytes"
            }
          ],
          "internalType": "struct TypesLib.Ciphertext",
          "name": "ciphertext",
          "type": "tuple"
        },
        {
          "internalType": "bytes",
          "name": "decryptionKey",
          "type": "bytes"
        }
      ],
      "name": "_decryptMultiplier",
      "outputs": [
        {
          "internalType": "uint256",
          "name": "",
          "type": "uint256"
        }
      ],
      "stateMutability": "view",
      "type": "function"
    },
    {
      "inputs": [],
      "name": "acceptOwnership",
      "outputs": [],
      "stateMutability": "nonpayable",
      "type": "function"
    },
    {
      "inputs": [],
      "name": "blocklock",
      "outputs": [
        {
          "internalType": "contract IBlocklockSender",
          "name": "",
          "type": "address"
        }
      ],
      "stateMutability": "view",
      "type": "function"
    },
    {
      "inputs": [
        {
          "internalType": "uint256",
          "name": "sessionId",
          "type": "uint256"
        },
        {
          "internalType": "uint256",
          "name": "unlockBlock",
          "type": "uint256"
        },
        {
          "internalType": "uint256",
          "name": "encryptedMultiplier",
          "type": "uint256"
        },
        {
          "internalType": "uint32",
          "name": "callbackGasLimit",
          "type": "uint32"
        }
      ],
      "name": "createBlockSealedSession",
      "outputs": [
        {
          "internalType": "uint256",
          "name": "sealId",
          "type": "uint256"
        },
        {
          "internalType": "uint256",
          "name": "requestPrice",
          "type": "uint256"
        }
      ],
      "stateMutability": "payable",
      "type": "function"
    },
    {
      "inputs": [],
      "name": "createSubscriptionAndFundNative",
      "outputs": [],
      "stateMutability": "payable",
      "type": "function"
    },
    {
      "inputs": [
        {
          "internalType": "uint256",
          "name": "sessionId",
          "type": "uint256"
        },
        {
          "internalType": "uint256",
          "name": "unlockDelayMinutes",
          "type": "uint256"
        },
        {
          "internalType": "uint256",
          "name": "encryptedMultiplier",
          "type": "uint256"
        },
        {
          "internalType": "uint32",
          "name": "callbackGasLimit",
          "type": "uint32"
        }
      ],
      "name": "createTimeSealedSession",
      "outputs": [
        {
          "internalType": "uint256",
          "name": "sealId",
          "type": "uint256"
        },
        {
          "internalType": "uint256",
          "name": "requestPrice",
          "type": "uint256"
        }
      ],
      "stateMutability": "payable",
      "type": "function"
    },
    {
      "inputs": [
        {
          "internalType": "uint256",
          "name": "sealId",
          "type": "uint256"
        },
        {
          "internalType": "uint256",
          "name": "multiplier",
          "type": "uint256"
        }
      ],
      "name": "emergencyReveal",
      "outputs": [],
      "stateMutability": "nonpayable",
      "type": "function"
    },
    {
      "inputs": [],
      "name": "fundContractNative",
      "outputs": [],
      "stateMutability": "payable",
      "type": "function"
    },
    {
      "inputs": [
        {
          "internalType": "address",
          "name": "player",
          "type": "address"
        },
        {
          "internalType": "uint256",
          "name": "sessionType",
          "type": "uint256"
        },
        {
          "internalType": "bytes32",
          "name": "randomSeed",
          "type": "bytes32"
        }
      ],
      "name": "generateMultiplier",
      "outputs": [
        {
          "internalType": "uint256",
          "name": "",
          "type": "uint256"
        }
      ],
      "stateMutability": "pure",
      "type": "function"
    },
    {
      "inputs": [],
      "name": "getBalance",
      "outputs": [
        {
          "internalType": "uint256",
          "name": "",
          "type": "uint256"
        }
      ],
      "stateMutability": "view",
      "type": "function"
    },
    {
      "inputs": [
        {
          "internalType": "address",
          "name": "player",
          "type": "address"
        }
      ],
      "name": "getPlayerSealedSessions",
      "outputs": [
        {
          "internalType": "uint256[]",
          "name": "",
          "type": "uint256[]"
        }
      ],
      "stateMutability": "view",
      "type": "function"
    },
    {
      "inputs": [
        {
          "internalType": "uint256",
          "name": "sealId",
          "type": "uint256"
        }
      ],
      "name": "getSealedSession",
      "outputs": [
        {
          "components": [
            {
              "internalType": "address",
              "name": "player",
              "type": "address"
            },
            {
              "internalType": "uint256",
              "name": "sessionId",
              "type": "uint256"
            },
            {
              "internalType": "uint256",
              "name": "requestId",
              "type": "uint256"
            },
            {
              "components": [
                {
                  "components": [
                    {
                      "internalType": "uint256[2]",
                      "name": "x",
                      "type": "uint256[2]"
                    },
                    {
                      "internalType": "uint256[2]",
                      "name": "y",
                      "type": "uint256[2]"
                    }
                  ],
                  "internalType": "struct BLS.PointG2",
                  "name": "u",
                  "type": "tuple"
                },
                {
                  "internalType": "bytes",
                  "name": "v",
                  "type": "bytes"
                },
                {
                  "internalType": "bytes",
                  "name": "w",
                  "type": "bytes"
                }
              ],
              "internalType": "struct TypesLib.Ciphertext",
              "name": "encryptedMultiplier",
              "type": "tuple"
            },
            {
              "internalType": "bytes",
              "name": "condition",
              "type": "bytes"
            },
            {
              "internalType": "uint256",
              "name": "createdAt",
              "type": "uint256"
            },
            {
              "internalType": "uint256",
              "name": "unlockTime",
              "type": "uint256"
            },
            {
              "internalType": "bool",
              "name": "isRevealed",
              "type": "bool"
            },
            {
              "internalType": "uint256",
              "name": "revealedMultiplier",
              "type": "uint256"
            },
            {
              "internalType": "enum CryptoCatcherBlocklock.SealType",
              "name": "sealType",
              "type": "uint8"
            }
          ],
          "internalType": "struct CryptoCatcherBlocklock.SealedSession",
          "name": "",
          "type": "tuple"
        }
      ],
      "stateMutability": "view",
      "type": "function"
    },
    {
      "inputs": [
        {
          "internalType": "uint256",
          "name": "sessionId",
          "type": "uint256"
        }
      ],
      "name": "getSealedSessionByGameId",
      "outputs": [
        {
          "components": [
            {
              "internalType": "address",
              "name": "player",
              "type": "address"
            },
            {
              "internalType": "uint256",
              "name": "sessionId",
              "type": "uint256"
            },
            {
              "internalType": "uint256",
              "name": "requestId",
              "type": "uint256"
            },
            {
              "components": [
                {
                  "components": [
                    {
                      "internalType": "uint256[2]",
                      "name": "x",
                      "type": "uint256[2]"
                    },
                    {
                      "internalType": "uint256[2]",
                      "name": "y",
                      "type": "uint256[2]"
                    }
                  ],
                  "internalType": "struct BLS.PointG2",
                  "name": "u",
                  "type": "tuple"
                },
                {
                  "internalType": "bytes",
                  "name": "v",
                  "type": "bytes"
                },
                {
                  "internalType": "bytes",
                  "name": "w",
                  "type": "bytes"
                }
              ],
              "internalType": "struct TypesLib.Ciphertext",
              "name": "encryptedMultiplier",
              "type": "tuple"
            },
            {
              "internalType": "bytes",
              "name": "condition",
              "type": "bytes"
            },
            {
              "internalType": "uint256",
              "name": "createdAt",
              "type": "uint256"
            },
            {
              "internalType": "uint256",
              "name": "unlockTime",
              "type": "uint256"
            },
            {
              "internalType": "bool",
              "name": "isRevealed",
              "type": "bool"
            },
            {
              "internalType": "uint256",
              "name": "revealedMultiplier",
              "type": "uint256"
            },
            {
              "internalType": "enum CryptoCatcherBlocklock.SealType",
              "name": "sealType",
              "type": "uint8"
            }
          ],
          "internalType": "struct CryptoCatcherBlocklock.SealedSession",
          "name": "",
          "type": "tuple"
        }
      ],
      "stateMutability": "view",
      "type": "function"
    },
    {
      "inputs": [
        {
          "internalType": "uint256",
          "name": "requestId",
          "type": "uint256"
        }
      ],
      "name": "isInFlight",
      "outputs": [
        {
          "internalType": "bool",
          "name": "",
          "type": "bool"
        }
      ],
      "stateMutability": "view",
      "type": "function"
    },
    {
      "inputs": [
        {
          "internalType": "uint256",
          "name": "sealId",
          "type": "uint256"
        }
      ],
      "name": "isReadyToReveal",
      "outputs": [
        {
          "internalType": "bool",
          "name": "",
          "type": "bool"
        }
      ],
      "stateMutability": "view",
      "type": "function"
    },
    {
      "inputs": [],
      "name": "nextSealId",
      "outputs": [
        {
          "internalType": "uint256",
          "name": "",
          "type": "uint256"
        }
      ],
      "stateMutability": "view",
      "type": "function"
    },
    {
      "inputs": [],
      "name": "owner",
      "outputs": [
        {
          "internalType": "address",
          "name": "",
          "type": "address"
        }
      ],
      "stateMutability": "view",
      "type": "function"
    },
    {
      "inputs": [
        {
          "internalType": "uint256",
          "name": "subId",
          "type": "uint256"
        }
      ],
      "name": "pendingRequestExists",
      "outputs": [
        {
          "internalType": "bool",
          "name": "",
          "type": "bool"
        }
      ],
      "stateMutability": "view",
      "type": "function"
    },
    {
      "inputs": [
        {
          "internalType": "address",
          "name": "",
          "type": "address"
        },
        {
          "internalType": "uint256",
          "name": "",
          "type": "uint256"
        }
      ],
      "name": "playerSealedSessions",
      "outputs": [
        {
          "internalType": "uint256",
          "name": "",
          "type": "uint256"
        }
      ],
      "stateMutability": "view",
      "type": "function"
    },
    {
      "inputs": [
        {
          "internalType": "uint256",
          "name": "requestId",
          "type": "uint256"
        },
        {
          "internalType": "bytes",
          "name": "decryptionKey",
          "type": "bytes"
        }
      ],
      "name": "receiveBlocklock",
      "outputs": [],
      "stateMutability": "nonpayable",
      "type": "function"
    },
    {
      "inputs": [
        {
          "internalType": "uint256",
          "name": "",
          "type": "uint256"
        }
      ],
      "name": "sealedSessions",
      "outputs": [
        {
          "internalType": "address",
          "name": "player",
          "type": "address"
        },
        {
          "internalType": "uint256",
          "name": "sessionId",
          "type": "uint256"
        },
        {
          "internalType": "uint256",
          "name": "requestId",
          "type": "uint256"
        },
        {
          "components": [
            {
              "components": [
                {
                  "internalType": "uint256[2]",
                  "name": "x",
                  "type": "uint256[2]"
                },
                {
                  "internalType": "uint256[2]",
                  "name": "y",
                  "type": "uint256[2]"
                }
              ],
              "internalType": "struct BLS.PointG2",
              "name": "u",
              "type": "tuple"
            },
            {
              "internalType": "bytes",
              "name": "v",
              "type": "bytes"
            },
            {
              "internalType": "bytes",
              "name": "w",
              "type": "bytes"
            }
          ],
          "internalType": "struct TypesLib.Ciphertext",
          "name": "encryptedMultiplier",
          "type": "tuple"
        },
        {
          "internalType": "bytes",
          "name": "condition",
          "type": "bytes"
        },
        {
          "internalType": "uint256",
          "name": "createdAt",
          "type": "uint256"
        },
        {
          "internalType": "uint256",
          "name": "unlockTime",
          "type": "uint256"
        },
        {
          "internalType": "bool",
          "name": "isRevealed",
          "type": "bool"
        },
        {
          "internalType": "uint256",
          "name": "revealedMultiplier",
          "type": "uint256"
        },
        {
          "internalType": "enum CryptoCatcherBlocklock.SealType",
          "name": "sealType",
          "type": "uint8"
        }
      ],
      "stateMutability": "view",
      "type": "function"
    },
    {
      "inputs": [
        {
          "internalType": "uint256",
          "name": "",
          "type": "uint256"
        }
      ],
      "name": "sessionIdToSealId",
      "outputs": [
        {
          "internalType": "uint256",
          "name": "",
          "type": "uint256"
        }
      ],
      "stateMutability": "view",
      "type": "function"
    },
    {
      "inputs": [
        {
          "internalType": "address",
          "name": "_blocklock",
          "type": "address"
        }
      ],
      "name": "setBlocklock",
      "outputs": [],
      "stateMutability": "nonpayable",
      "type": "function"
    },
    {
      "inputs": [
        {
          "internalType": "uint256",
          "name": "subId",
          "type": "uint256"
        }
      ],
      "name": "setSubId",
      "outputs": [],
      "stateMutability": "nonpayable",
      "type": "function"
    },
    {
      "inputs": [],
      "name": "subscriptionId",
      "outputs": [
        {
          "internalType": "uint256",
          "name": "",
          "type": "uint256"
        }
      ],
      "stateMutability": "view",
      "type": "function"
    },
    {
      "inputs": [],
      "name": "topUpSubscriptionNative",
      "outputs": [],
      "stateMutability": "payable",
      "type": "function"
    },
    {
      "inputs": [
        {
          "internalType": "address",
          "name": "to",
          "type": "address"
        }
      ],
      "name": "transferOwnership",
      "outputs": [],
      "stateMutability": "nonpayable",
      "type": "function"
    },
    {
      "inputs": [
        {
          "internalType": "address[]",
          "name": "consumers",
          "type": "address[]"
        }
      ],
      "name": "updateSubscription",
      "outputs": [],
      "stateMutability": "nonpayable",
      "type": "function"
    },
    {
      "inputs": [
        {
          "internalType": "uint256",
          "name": "amount",
          "type": "uint256"
        },
        {
          "internalType": "address",
          "name": "recipient",
          "type": "address"
        }
      ],
      "name": "withdrawNative",
      "outputs": [],
      "stateMutability": "nonpayable",
      "type": "function"
    },
    {
      "stateMutability": "payable",
      "type": "receive"
    }
  ],
  "bytecode": "0x608060405260016007553480156200001657600080fd5b506040516200336d3803806200336d83398101604081905262000039916200019b565b803380600081620000915760405162461bcd60e51b815260206004820152601860248201527f43616e6e6f7420736574206f776e657220746f207a65726f000000000000000060448201526064015b60405180910390fd5b600080546001600160a01b0319166001600160a01b0384811691909117909155811615620000c457620000c481620000f0565b5050600280546001600160a01b0319166001600160a01b03939093169290921790915550620001cd9050565b336001600160a01b038216036200014a5760405162461bcd60e51b815260206004820152601760248201527f43616e6e6f74207472616e7366657220746f2073656c66000000000000000000604482015260640162000088565b600180546001600160a01b0319166001600160a01b0383811691821790925560008054604051929316917fed8889f560326eb138920d842192f0eb3dd22b4f139c87a2c57538e05bae12789190a350565b600060208284031215620001ae57600080fd5b81516001600160a01b0381168114620001c657600080fd5b9392505050565b61319080620001dd6000396000f3fe6080604052600436106101c65760003560e01c80634fa26d40116100f757806393b9740a11610095578063cd802c9111610064578063cd802c9114610527578063dd34888114610547578063e64a66ea1461057d578063f2fde38b1461058557600080fd5b806393b9740a146104bf57806399327e12146104df578063b8ca8dd8146104ff578063b96dbba71461051f57600080fd5b80636644a025116100d15780636644a0251461042b57806379ba509714610458578063809800431461046d5780638da5cb5b1461048d57600080fd5b80634fa26d40146103d55780634fe85236146103f55780635d9418021461040b57600080fd5b80631d2b2afd116101645780633f69a6f01161013e5780633f69a6f01461035557806341af6c87146103825780634225e264146103a257806343541d24146103b557600080fd5b80631d2b2afd1461030d5780632d3720dd1461031557806336bfffed1461033557600080fd5b806312065fe0116101a057806312065fe01461028357806317bf908b1461029657806319885090146102c35780631d21f34b146102eb57600080fd5b806302a7b5051461020a578063040a9ded1461023d57806309c1ba2e1461026d57600080fd5b3661020557604080513381523460208201527f88a5966d370b9919b20f3e2c13ff65706f196a4e32cc2c12bf57088f88525874910160405180910390a1005b600080fd5b34801561021657600080fd5b5061022a6102253660046125df565b6105a5565b6040519081526020015b60405180910390f35b34801561024957600080fd5b5061025d610258366004612612565b6106e9565b6040519015158152602001610234565b34801561027957600080fd5b5061022a60035481565b34801561028f57600080fd5b504761022a565b3480156102a257600080fd5b506102b66102b136600461262b565b610759565b6040516102349190612646565b6102d66102d136600461268a565b6107c5565b60408051928352602083019190915201610234565b3480156102f757600080fd5b5061030b6103063660046126d4565b610a7c565b005b61030b610bf3565b34801561032157600080fd5b5061022a6103303660046126f6565b610c9a565b34801561034157600080fd5b5061030b610350366004612720565b610ccb565b34801561036157600080fd5b5061022a610370366004612612565b60066020526000908152604090205481565b34801561038e57600080fd5b5061025d61039d366004612612565b610dd6565b6102d66103b036600461268a565b610e4b565b3480156103c157600080fd5b5061022a6103d03660046127de565b61110c565b3480156103e157600080fd5b5061030b6103f036600461262b565b611141565b34801561040157600080fd5b5061022a60075481565b34801561041757600080fd5b5061030b61042636600461284f565b6111cb565b34801561043757600080fd5b5061044b610446366004612612565b611230565b6040516102349190612992565b34801561046457600080fd5b5061030b611547565b34801561047957600080fd5b5061030b610488366004612612565b6115f1565b34801561049957600080fd5b506000546001600160a01b03165b6040516001600160a01b039091168152602001610234565b3480156104cb57600080fd5b506002546104a7906001600160a01b031681565b3480156104eb57600080fd5b5061044b6104fa366004612612565b61162c565b34801561050b57600080fd5b5061030b61051a366004612a4f565b611947565b61030b611a1d565b34801561053357600080fd5b5061025d610542366004612612565b611a64565b34801561055357600080fd5b50610567610562366004612612565b611a96565b6040516102349a99989796959493929190612a7b565b61030b611d1d565b34801561059157600080fd5b5061030b6105a036600461262b565b611d9d565b6000606460018490036105ba575060786105e7565b836002036105ca575060966105e7565b836003036105da575060c86105e7565b836004036105e7575061012c5b604080516001600160a01b03871660208201529081018490526000906064906060016040516020818303038152906040528051906020012060001c61062c9190612b0e565b9050600060c861063c8385612b38565b6106469190612b4f565b90506000600286604051602001610680918152604060208201819052600990820152683234b932b1ba34b7b760b91b606082015260800190565b6040516020818303038152906040528051906020012060001c6106a39190612b0e565b15905080156106c1576106b68285612b63565b9450505050506106e2565b8184116106d8576106d3600285612b4f565b6106b6565b6106b68285612b76565b9392505050565b600081815260046020526040812081600e82015460ff1660028111156107115761071161295a565b0361072357600b015442101592915050565b6001600e82015460ff16600281111561073e5761073e61295a565b0361075057600b015443101592915050565b50600092915050565b6001600160a01b0381166000908152600560209081526040918290208054835181840281018401909452808452606093928301828280156107b957602002820191906000526020600020905b8154815260200190600101908083116107a5575b50505050509050919050565b6000848152600660205260408120548190156107f45760405163bcb3d1e360e01b815260040160405180910390fd5b6007805490600061080483612b89565b909155509150600061081786603c612b38565b6108219042612b63565b6040805160208101829052600460608201526354494d4560e01b608082015290810182905290915060009060a0016040516020818303038152906040529050600061086b87611db1565b905060008061087b888585611e22565b91509150604051806101400160405280336001600160a01b031681526020018c815260200183815260200184815260200185815260200142815260200186815260200160001515815260200160008152602001600060028111156108e1576108e161295a565b9052600088815260046020908152604091829020835181546001600160a01b0319166001600160a01b039091161781559083015160018201559082015160028083019190915560608301518051805191926003850192839161094491839161249b565b50602082015161095a906002808401919061249b565b505050602082015160048201906109719082612c40565b50604082015160058201906109869082612c40565b5050506080820151600982019061099d9082612c40565b5060a0820151600a82015560c0820151600b82015560e0820151600c8201805491151560ff19928316179055610100830151600d830155610120830151600e83018054919290911660018360028111156109f9576109f961295a565b0217905550503360008181526005602090815260408083208054600181018255908452828420018c90558f835260069091528082208b9055518e93508a917f56847dd0a4ac2f54c9338a68bfa565af3ec93fcf0506fc6640805a5fa723ac6491610a6591908b90612d00565b60405180910390a494505050505094509492505050565b610a84611f61565b6000828152600460205260409020600c81015460ff1615610adf5760405162461bcd60e51b815260206004820152601060248201526f105b1c9958591e481c995d99585b195960821b60448201526064015b60405180910390fd5b600a810154610af19062015180612b63565b4211610b345760405162461bcd60e51b81526020600482015260126024820152714d757374207761697420323420686f75727360701b6044820152606401610ad6565b60328210158015610b4757506103e88211155b610b885760405162461bcd60e51b815260206004820152601260248201527124b73b30b634b21036bab63a34b83634b2b960711b6044820152606401610ad6565b600c8101805460ff19166001908117909155600d820183905581549082015460408051918252602082018590526001600160a01b039092169185917f16c4ead694dc2b6cbc5350c7d4a256cd9b72af1f3e2843432d24be99aeb49ac4910160405180910390a3505050565b600354600003610c335760405162461bcd60e51b815260206004820152600b60248201526a1cdd58881b9bdd081cd95d60aa1b6044820152606401610ad6565b60025460035460405163256d573f60e21b815260048101919091526001600160a01b03909116906395b55cfc9034906024015b6000604051808303818588803b158015610c7f57600080fd5b505af1158015610c93573d6000803e3d6000fd5b5050505050565b60056020528160005260406000208181548110610cb657600080fd5b90600052602060002001600091509150505481565b610cd3611f61565b600354600003610d155760405162461bcd60e51b815260206004820152600d60248201526c1cdd589251081b9bdd081cd95d609a1b6044820152606401610ad6565b60005b81811015610dd1576002546003546001600160a01b039091169063bec4c08c90858585818110610d4a57610d4a612d1b565b9050602002016020810190610d5f919061262b565b6040516001600160e01b031960e085901b16815260048101929092526001600160a01b03166024820152604401600060405180830381600087803b158015610da657600080fd5b505af1158015610dba573d6000803e3d6000fd5b505050508080610dc990612b89565b915050610d18565b505050565b6002546040516341af6c8760e01b8152600481018390526000916001600160a01b0316906341af6c87906024015b602060405180830381865afa158015610e21573d6000803e3d6000fd5b505050506040513d601f19601f82011682018060405250810190610e459190612d31565b92915050565b600084815260066020526040812054819015610e7a5760405163bcb3d1e360e01b815260040160405180910390fd5b438511610e9a5760405163bef2264760e01b815260040160405180910390fd5b60078054906000610eaa83612b89565b9091555060408051602081018290526005606082015264424c4f434b60d81b608082015290810187905290925060009060a00160405160208183030381529060405290506000610ef986611db1565b9050600080610f09878585611e22565b91509150604051806101400160405280336001600160a01b031681526020018b81526020018381526020018481526020018581526020014281526020018a81526020016000151581526020016000815260200160016002811115610f6f57610f6f61295a565b9052600087815260046020908152604091829020835181546001600160a01b0319166001600160a01b0390911617815590830151600182015590820151600280830191909155606083015180518051919260038501928391610fd291839161249b565b506020820151610fe8906002808401919061249b565b50505060208201516004820190610fff9082612c40565b50604082015160058201906110149082612c40565b5050506080820151600982019061102b9082612c40565b5060a0820151600a82015560c0820151600b82015560e0820151600c8201805491151560ff19928316179055610100830151600d830155610120830151600e83018054919290911660018360028111156110875761108761295a565b021790555050336000818152600560209081526040808320805460018181018355918552838520018c90558f84526006909252918290208a905590518d935089917f56847dd0a4ac2f54c9338a68bfa565af3ec93fcf0506fc6640805a5fa723ac64916110f691908f90612d00565b60405180910390a4935050505094509492505050565b60008061112261111b86612e7b565b8585611fb6565b9050808060200190518101906111389190612f41565b95945050505050565b611149611f61565b6001600160a01b0381166111a95760405162461bcd60e51b815260206004820152602160248201527f43616e6e6f7420736574207a65726f20616464726573732061732073656e64656044820152603960f91b6064820152608401610ad6565b600280546001600160a01b0319166001600160a01b0392909216919091179055565b6002546001600160a01b031633146112255760405162461bcd60e51b815260206004820181905260248201527f4f6e6c7920626c6f636b6c6f636b20636f6e74726163742063616e2063616c6c6044820152606401610ad6565b610dd1838383612038565b6112386124d9565b81158061124757506007548210155b15611265576040516323cc71ab60e11b815260040160405180910390fd5b60008281526004602090815260409182902082516101408101845281546001600160a01b0316815260018201549281019290925260028082015483850152835160e0810194859052929391926060808601939192600386019284928301918491839160a086019184919082845b8154815260200190600101908083116112d257505050918352505060408051808201918290526020909201919060028481019182845b81548152602001906001019080831161130857505050505081525050815260200160048201805461133890612bb8565b80601f016020809104026020016040519081016040528092919081815260200182805461136490612bb8565b80156113b15780601f10611386576101008083540402835291602001916113b1565b820191906000526020600020905b81548152906001019060200180831161139457829003601f168201915b505050505081526020016005820180546113ca90612bb8565b80601f01602080910402602001604051908101604052809291908181526020018280546113f690612bb8565b80156114435780601f1061141857610100808354040283529160200191611443565b820191906000526020600020905b81548152906001019060200180831161142657829003601f168201915b505050505081525050815260200160098201805461146090612bb8565b80601f016020809104026020016040519081016040528092919081815260200182805461148c90612bb8565b80156114d95780601f106114ae576101008083540402835291602001916114d9565b820191906000526020600020905b8154815290600101906020018083116114bc57829003601f168201915b5050509183525050600a8201546020820152600b8201546040820152600c82015460ff90811615156060830152600d8301546080830152600e83015460a09092019116600281111561152d5761152d61295a565b600281111561153e5761153e61295a565b90525092915050565b6001546001600160a01b0316331461159a5760405162461bcd60e51b815260206004820152601660248201527526bab9ba10313290383937b837b9b2b21037bbb732b960511b6044820152606401610ad6565b60008054336001600160a01b0319808316821784556001805490911690556040516001600160a01b0390921692909183917f8be0079c531659141344cd1fd0a4f28419497f9722a3daafe3b4186f6b6457e091a350565b6115f9611f61565b600381905560405181907f5f479ac993925efae23839aa1c813b6ecb2fe1bbd14dc78295ab267d2fca436890600090a250565b6116346124d9565b60008281526006602052604081205490819003611664576040516323cc71ab60e11b815260040160405180910390fd5b60008181526004602090815260409182902082516101408101845281546001600160a01b0316815260018201549281019290925260028082015483850152835160e0810194859052929391926060808601939192600386019284928301918491839160a086019184919082845b8154815260200190600101908083116116d157505050918352505060408051808201918290526020909201919060028481019182845b81548152602001906001019080831161170757505050505081525050815260200160048201805461173790612bb8565b80601f016020809104026020016040519081016040528092919081815260200182805461176390612bb8565b80156117b05780601f10611785576101008083540402835291602001916117b0565b820191906000526020600020905b81548152906001019060200180831161179357829003601f168201915b505050505081526020016005820180546117c990612bb8565b80601f01602080910402602001604051908101604052809291908181526020018280546117f590612bb8565b80156118425780601f1061181757610100808354040283529160200191611842565b820191906000526020600020905b81548152906001019060200180831161182557829003601f168201915b505050505081525050815260200160098201805461185f90612bb8565b80601f016020809104026020016040519081016040528092919081815260200182805461188b90612bb8565b80156118d85780601f106118ad576101008083540402835291602001916118d8565b820191906000526020600020905b8154815290600101906020018083116118bb57829003601f168201915b5050509183525050600a8201546020820152600b8201546040820152600c82015460ff90811615156060830152600d8301546080830152600e83015460a09092019116600281111561192c5761192c61295a565b600281111561193d5761193d61295a565b9052509392505050565b61194f611f61565b8147101561199f5760405162461bcd60e51b815260206004820152601e60248201527f496e73756666696369656e742066756e647320696e20636f6e747261637400006044820152606401610ad6565b6040516001600160a01b0382169083156108fc029084906000818181858888f193505050501580156119d5573d6000803e3d6000fd5b50806001600160a01b03167f7084f5476618d8e60b11ef0d7d3f06914655adb8793e28ff7f018d4c76d505d583604051611a1191815260200190565b60405180910390a25050565b611a25611f61565b611a2d61227d565b600381905560025460405163256d573f60e21b815260048101929092526001600160a01b0316906395b55cfc903490602401610c66565b60025460405163cd802c9160e01b8152600481018390526000916001600160a01b03169063cd802c9190602401610e04565b6004602052600090815260409081902080546001820154600280840154855160e08101968790526001600160a01b039094169592949093909290916003840191839160608301918491839160a0860191849182845b815481526020019060010190808311611aeb57505050918352505060408051808201918290526020909201919060028481019182845b815481526020019060010190808311611b21575050505050815250508152602001600482018054611b5190612bb8565b80601f0160208091040260200160405190810160405280929190818152602001828054611b7d90612bb8565b8015611bca5780601f10611b9f57610100808354040283529160200191611bca565b820191906000526020600020905b815481529060010190602001808311611bad57829003601f168201915b50505050508152602001600582018054611be390612bb8565b80601f0160208091040260200160405190810160405280929190818152602001828054611c0f90612bb8565b8015611c5c5780601f10611c3157610100808354040283529160200191611c5c565b820191906000526020600020905b815481529060010190602001808311611c3f57829003601f168201915b50505050508152505090806009018054611c7590612bb8565b80601f0160208091040260200160405190810160405280929190818152602001828054611ca190612bb8565b8015611cee5780601f10611cc357610100808354040283529160200191611cee565b820191906000526020600020905b815481529060010190602001808311611cd157829003601f168201915b505050600a840154600b850154600c860154600d870154600e909701549596929591945060ff9081169350168a565b60003411611d665760405162461bcd60e51b81526020600482015260166024820152750b2deea40daeae6e840e6cadcc840e6dedaca408aa8960531b6044820152606401610ad6565b60405134815233907f5af8184bef8e4b45eb9f6ed7734d04da38ced226495548f46e0c8ff8d7d9a5249060200160405180910390a2565b611da5611f61565b611dae816123b2565b50565b611db961254d565b600082604051602001611dce91815260200190565b60408051601f1981840301815260e083018252600060a0840181815260c085018290526060850190815283518085018552828152602081810193909352608086015284528301819052908201529392505050565b600254604051634b16093560e01b815263ffffffff8516600482015260009182916001600160a01b0390911690634b16093590602401602060405180830381865afa158015611e75573d6000803e3d6000fd5b505050506040513d601f19601f82011682018060405250810190611e999190612f41565b905080341015611ede5760405162461bcd60e51b815260206004820152601060248201526f092dce6eaccccd2c6d2cadce8408aa8960831b6044820152606401610ad6565b600254604051637909dc7b60e01b81526001600160a01b0390911690637909dc7b903490611f1490899089908990600401612f5a565b60206040518083038185885af1158015611f32573d6000803e3d6000fd5b50505050506040513d601f19601f82011682018060405250810190611f579190612f41565b9150935093915050565b6000546001600160a01b03163314611fb45760405162461bcd60e51b815260206004820152601660248201527527b7363c9031b0b63630b1363290313c9037bbb732b960511b6044820152606401610ad6565b565b60025460405163326f063160e21b81526060916001600160a01b03169063c9bc18c490611feb90879087908790600401612fbe565b600060405180830381865afa158015612008573d6000803e3d6000fd5b505050506040513d6000823e601f3d908101601f191682016040526120309190810190612fe4565b949350505050565b60006120438461245b565b9050806000036120b35760007f82e3c1cb2cc58f679ddac88416c1f21e0499aa3d661b5387dd15e937a15942416040516120a59060208082526014908201527314995c5d595cdd081251081b9bdd08199bdd5b9960621b604082015260600190565b60405180910390a250505050565b60008181526004602081905260409182902091516310d5074960e21b815230916343541d24916120ec91600386019189918991016130f2565b602060405180830381865afa925050508015612125575060408051601f3d908101601f1916820190925261212291810190612f41565b60015b61218a57817f82e3c1cb2cc58f679ddac88416c1f21e0499aa3d661b5387dd15e937a159424160405161217d90602080825260119082015270111958dc9e5c1d1a5bdb8819985a5b1959607a1b604082015260600190565b60405180910390a2610c93565b603281108061219a57506103e881115b1561220f57827f82e3c1cb2cc58f679ddac88416c1f21e0499aa3d661b5387dd15e937a15942416040516121ff9060208082526018908201527f496e76616c6964206d756c7469706c6965722072616e67650000000000000000604082015260600190565b60405180910390a2505050505050565b600c8201805460ff19166001908117909155600d830182905582549083015460408051918252602082018490526001600160a01b039092169185917f16c4ead694dc2b6cbc5350c7d4a256cd9b72af1f3e2843432d24be99aeb49ac4910160405180910390a3505050505050565b60006003546000146122d15760405162461bcd60e51b815260206004820152601a60248201527f537562736372697074696f6e4964206973206e6f74207a65726f0000000000006044820152606401610ad6565b600260009054906101000a90046001600160a01b03166001600160a01b031663a21a23e46040518163ffffffff1660e01b81526004016020604051808303816000875af1158015612326573d6000803e3d6000fd5b505050506040513d601f19601f8201168201806040525081019061234a9190612f41565b600254604051632fb1302360e21b8152600481018390523060248201529192506001600160a01b03169063bec4c08c90604401600060405180830381600087803b15801561239757600080fd5b505af11580156123ab573d6000803e3d6000fd5b5050505090565b336001600160a01b0382160361240a5760405162461bcd60e51b815260206004820152601760248201527f43616e6e6f74207472616e7366657220746f2073656c660000000000000000006044820152606401610ad6565b600180546001600160a01b0319166001600160a01b0383811691821790925560008054604051929316917fed8889f560326eb138920d842192f0eb3dd22b4f139c87a2c57538e05bae12789190a350565b600060015b600754811015610750576000818152600460205260409020600201548390036124895792915050565b8061249381612b89565b915050612460565b82600281019282156124c9579160200282015b828111156124c95782518255916020019190600101906124ae565b506124d5929150612574565b5090565b60405180610140016040528060006001600160a01b03168152602001600081526020016000815260200161250b61254d565b815260200160608152602001600081526020016000815260200160001515815260200160008152602001600060028111156125485761254861295a565b905290565b6040518060600160405280612560612589565b815260200160608152602001606081525090565b5b808211156124d55760008155600101612575565b604051806040016040528061259c6125a5565b81526020016125485b60405180604001604052806002906020820280368337509192915050565b80356001600160a01b03811681146125da57600080fd5b919050565b6000806000606084860312156125f457600080fd5b6125fd846125c3565b95602085013595506040909401359392505050565b60006020828403121561262457600080fd5b5035919050565b60006020828403121561263d57600080fd5b6106e2826125c3565b6020808252825182820181905260009190848201906040850190845b8181101561267e57835183529284019291840191600101612662565b50909695505050505050565b600080600080608085870312156126a057600080fd5b843593506020850135925060408501359150606085013563ffffffff811681146126c957600080fd5b939692955090935050565b600080604083850312156126e757600080fd5b50508035926020909101359150565b6000806040838503121561270957600080fd5b612712836125c3565b946020939093013593505050565b6000806020838503121561273357600080fd5b823567ffffffffffffffff8082111561274b57600080fd5b818501915085601f83011261275f57600080fd5b81358181111561276e57600080fd5b8660208260051b850101111561278357600080fd5b60209290920196919550909350505050565b60008083601f8401126127a757600080fd5b50813567ffffffffffffffff8111156127bf57600080fd5b6020830191508360208285010111156127d757600080fd5b9250929050565b6000806000604084860312156127f357600080fd5b833567ffffffffffffffff8082111561280b57600080fd5b9085019060c0828803121561281f57600080fd5b9093506020850135908082111561283557600080fd5b5061284286828701612795565b9497909650939450505050565b60008060006040848603121561286457600080fd5b83359250602084013567ffffffffffffffff81111561288257600080fd5b61284286828701612795565b8060005b60028110156128b1578151845260209384019390910190600101612892565b50505050565b60005b838110156128d25781810151838201526020016128ba565b50506000910152565b600081518084526128f38160208601602086016128b7565b601f01601f19169290920160200192915050565b6000815161291684825161288e565b60200151612927604085018261288e565b50602082015160c0608085015261294160c08501826128db565b9050604083015184820360a086015261113882826128db565b634e487b7160e01b600052602160045260246000fd5b6003811061298e57634e487b7160e01b600052602160045260246000fd5b9052565b602081526129ac6020820183516001600160a01b03169052565b6020820151604082015260408201516060820152600060608301516101408060808501526129de610160850183612907565b91506080850151601f198584030160a08601526129fb83826128db565b92505060a085015160c085015260c085015160e085015260e0850151610100612a278187018315159052565b860151610120868101919091528601519050612a4582860182612970565b5090949350505050565b60008060408385031215612a6257600080fd5b82359150612a72602084016125c3565b90509250929050565b600061014060018060a01b038d1683528b60208401528a6040840152806060840152612aa98184018b612907565b90508281036080840152612abd818a6128db565b9150508660a08301528560c083015284151560e083015283610100830152612ae9610120830184612970565b9b9a5050505050505050505050565b634e487b7160e01b600052601260045260246000fd5b600082612b1d57612b1d612af8565b500690565b634e487b7160e01b600052601160045260246000fd5b8082028115828204841417610e4557610e45612b22565b600082612b5e57612b5e612af8565b500490565b80820180821115610e4557610e45612b22565b81810381811115610e4557610e45612b22565b600060018201612b9b57612b9b612b22565b5060010190565b634e487b7160e01b600052604160045260246000fd5b600181811c90821680612bcc57607f821691505b602082108103612bec57634e487b7160e01b600052602260045260246000fd5b50919050565b601f821115610dd157600081815260208120601f850160051c81016020861015612c195750805b601f850160051c820191505b81811015612c3857828155600101612c25565b505050505050565b815167ffffffffffffffff811115612c5a57612c5a612ba2565b612c6e81612c688454612bb8565b84612bf2565b602080601f831160018114612ca35760008415612c8b5750858301515b600019600386901b1c1916600185901b178555612c38565b600085815260208120601f198616915b82811015612cd257888601518255948401946001909101908401612cb3565b5085821015612cf05787850151600019600388901b60f8161c191681555b5050505050600190811b01905550565b60408101612d0e8285612970565b8260208301529392505050565b634e487b7160e01b600052603260045260246000fd5b600060208284031215612d4357600080fd5b815180151581146106e257600080fd5b6040805190810167ffffffffffffffff81118282101715612d7657612d76612ba2565b60405290565b604051601f8201601f1916810167ffffffffffffffff81118282101715612da557612da5612ba2565b604052919050565b600082601f830112612dbe57600080fd5b612dc6612d53565b806040840185811115612dd857600080fd5b845b81811015612df2578035845260209384019301612dda565b509095945050505050565b600067ffffffffffffffff821115612e1757612e17612ba2565b50601f01601f191660200190565b600082601f830112612e3657600080fd5b8135612e49612e4482612dfd565b612d7c565b818152846020838601011115612e5e57600080fd5b816020850160208301376000918101602001919091529392505050565b600081360360c0811215612e8e57600080fd5b6040516060810167ffffffffffffffff8282108183111715612eb257612eb2612ba2565b816040526080841215612ec457600080fd5b612ecc612d53565b9350612ed83687612dad565b8452612ee73660408801612dad565b602085015292825260808501359280841115612f0257600080fd5b612f0e36858801612e25565b602084015260a0860135935080841115612f2757600080fd5b5050612f3536838601612e25565b60408201529392505050565b600060208284031215612f5357600080fd5b5051919050565b63ffffffff84168152606060208201526000612f7960608301856128db565b8281036040840152612f8b8185612907565b9695505050505050565b81835281816020850137506000828201602090810191909152601f909101601f19169091010190565b604081526000612fd16040830186612907565b8281036020840152612f8b818587612f95565b600060208284031215612ff657600080fd5b815167ffffffffffffffff81111561300d57600080fd5b8201601f8101841361301e57600080fd5b805161302c612e4482612dfd565b81815285602083850101111561304157600080fd5b6111388260208301602086016128b7565b8060005b60028110156128b1578154845260209093019260019182019101613056565b6000815461308281612bb8565b80855260206001838116801561309f57600181146130b9576130e7565b60ff1985168884015283151560051b8801830195506130e7565b866000528260002060005b858110156130df5781548a82018601529083019084016130c4565b890184019650505b505050505092915050565b604081526131036040820185613052565b6131136080820160028601613052565b60c080820152600061312c610100830160048701613075565b828103603f190160e08401526131458160058801613075565b90508281036020840152612f8b818587612f9556fea26469706673582212207f9267b2ea41462ab0b82e9cf5398bf02c407adf6e1436d2b1c79f614e0fc99464736f6c63430008140033",
  "linkReferences": {},
  "deployedLinkReferences": {}
}